:020000040800F2
:10000000100A0024390300081B3E00089D3A00082E
:10001000193E000895050008E94D000800000000A1
:10002000000000000000000000000000AB410008DC
:10003000710A0008000000001D3E0008AD410008E4
:100040005303000853030008530300085303000838
:100050005303000853030008530300085303000828
:100060005303000853030008530300085303000818
:100070005303000853030008530300085303000808
:1000800053030008530300085303000853030008F8
:1000900053030008530300085303000853030008E8
:1000A00053030008530300085303000853030008D8
:1000B00053030008530300085303000853030008C8
:1000C00053030008530300085303000853030008B8
:1000D00053030008530300085303000853030008A8
:1000E00053030008530300080000000053030008F6
:1000F0005303000853030008530300085303000888
:100100005303000853030008530300085303000877
:100110006D4300085303000853030008530300080D
:100120005303000853030008530300085303000857
:100130005303000853030008530300085303000847
:1001400000000000000000000000000000000000AF
:100150005303000853030008530300085303000827
:100160005303000853030008530300085303000817
:100170005303000853030008530300080000000065
:1001800053030008530300085303000853030008F7
:1001900053030008530300085303000853030008E7
:1001A00053030008530300085303000853030008D7
:1001B00053030008530300085303000853030008C7
:1001C00053030008530300085303000853030008B7
:1001D00053030008530300085303000853030008A7
:1001E0005303000853030008530300085303000897
:1001F0005303000853030008530300085303000887
:100200005303000853030008530300085303000876
:100210005303000853030008530300085303000866
:1002200053030008530300085303000800000000B4
:1002300053030008530300080000000053030008A4
:100240005303000853030008530300085303000836
:100250005303000853030008530300085303000826
:100260005303000853030008530300085303000816
:100270005303000853030008530300080000000064
:100280005303000853030008530300080000000054
:10029000000000005303000800F002F800F03CF8F2
:1002A0000AA090E8000C82448344AAF10107DA45D1
:1002B00001D100F031F8AFF2090EBAE80F0013F0E7
:1002C000010F18BFFB1A43F0010318475C4F0000F1
:1002D0007C4F0000103A24BF78C878C1FAD8520782
:1002E00024BF30C830C144BF04680C6070470000B0
:1002F0000023002400250026103A28BF78C1FBD82F
:10030000520728BF30C148BF0B6070471FB504F0CB
:1003100069FF1FBD10B510BD00F007F91146FFF7CA
:10032000F5FF04F073FD00F025F903B4FFF7F2FFC9
:1003300003BC00F029F9000009488047094800473C
:10034000FEE7FEE7FEE7FEE7FEE7FEE7FEE7FEE785
:10035000FEE7FEE704480549054A064B70470000E2
:100360004D4200089902000810040024100A0024DD
:10037000100600241006002453EA020C00F06980E5
:100380002DE9F04B4FF00006002B1FBFB3FA83F5A9
:1003900003FA05F424FA05F65E4012BF1643B2FADA
:1003A00082F502FA05F4C5F120051EBF22FA05FC0C
:1003B00044EA0C04203556EA044C4FEA144418BFB2
:1003C000641C4FF000084FF00009904271EB030CE1
:1003D00039D3002919BFB1FA81F701FA07F6B0FA4B
:1003E00080F700FA07F6C7F120071EBF20FA07FCC6
:1003F00046EA0C062037B6FBF4FCA7EB0507103FD6
:1004000007F01F0BCBF120060CFA0BFB2CFA06F6BB
:1004100044BFB3460026202FA4BF5E464FF0000B1A
:100420005BEA060C08BF4FF0010B19EB0B09ABFBA5
:10043000027C48EB0608C01B06FB02CC0BFB03CC7E
:1004400071EB0C01C1E70B46024641464846BDE848
:10045000F08B13B54FF000004FF00001AFF30080B8
:10046000BDE81C40704710B5203AC0F00B80B1E8E1
:100470001850203AA0E81850B1E81850A0E81850D9
:10048000BFF4F5AF5FEA027C24BFB1E81850A0E8E2
:10049000185044BF18C918C0BDE810405FEA827CFC
:1004A00024BF51F8043B40F8043B08BF7047D20713
:1004B00028BF31F8023B48BF11F8012B28BF20F8B4
:1004C000023B48BF00F8012B70474FF0000200B517
:1004D000134694469646203922BFA0E80C50A0E867
:1004E0000C50B1F12001BFF4F7AF090728BFA0E815
:1004F0000C5048BF0CC05DF804EB890028BF40F8E1
:10050000042B08BF704748BF20F8022B11F0804F22
:1005100018BF00F8012B7047704770477047000004
:1005200000487047AC03002470477546FFF7F8FF9A
:10053000AE4605006946534620F00700854618B0D0
:1005400020B5FFF707FFBDE820404FF000064FF051
:1005500000074FF000084FF0000B21F00701AC46F8
:10056000ACE8C009ACE8C009ACE8C009ACE8C00917
:100570008D46704710B50446AFF300802046BDE8B5
:100580001040FFF7D2BE000001491820ABBEFEE7C5
:1005900026000200FEE700002DE9F0471D46164642
:1005A00000240F46DDE9089882462A464B4631462C
:1005B00000F006FA714964230122384602F0B3FCC8
:1005C0006E49642301223846491D02F0ACFC6B4998
:1005D000642301223846093102F0A5FC6423384621
:1005E00001220AA902F09FFC43462A4631465046A2
:1005F00000F0E6F9384602F091F90128FAD16420BA
:1006000000F02EFD4B462A463146504600F0D8F900
:100610005A49642301223846491C02F084FC574998
:10062000642301223846891D02F07DFC534964236E
:10063000012238460A3102F076FC50496423012237
:1006400038460D3102F06FFC43462A46314650468B
:1006500000F0B6F9384602F061F90128FAD16420B9
:1006600000F0FEFC4B462A463146504600F0A8F901
:100670004249642301223846C91C02F054FC3F4918
:10068000642301223846083102F04DFC3B496423C3
:10069000012238460C3102F046FC64233846012220
:1006A0000CA902F040FC43462A463146504600F071
:1006B00087F9384602F032F90128FAD1642000F0B7
:1006C000CFFC4B462A463146504600F079F92B497B
:1006D000642301223846891C02F025FC2749642343
:1006E00001223846C91D02F01EFC24496423012260
:1006F00038460B3102F017FC6423384601220BA95F
:1007000002F011FC43462A463146504600F058F9A3
:10071000384602F003F90128FAD1642000F0A0FC69
:100720004B462A463146504600F04AF913496423A5
:1007300001223846091D02F0F6FB1049642301220C
:100740003846891D02F0EFFB0C496423012238462C
:100750000A3102F0E8FB09496423012238460D31D1
:1007600002F0E1FB43462A463146504600F028F9A4
:10077000642000F075FC2046BDE8F08720000024CE
:100780002DE9F0471F469046894606460A9C3A46A0
:10079000DDE90835414600F013F9642321460422BF
:1007A000484602F099FA2B463A4641463046BDE8A3
:1007B000F04700F005B900002DE9FF41002415467F
:1007C0000E46074622462946304600F073FD6E4924
:1007D00064230122384602F0A6FB6B496423012200
:1007E0003846491D02F09FFB6749642301223846C1
:1007F000093102F098FB64233846012203A902F074
:1008000092FB01222946304600F054FD384602F0A2
:1008100085F80128FAD1642000F022FC0022294644
:10082000304600F047FD5849642301223846491CF0
:1008300002F079FB5449642301223846891D02F0F5
:1008400072FB51496423012238460A3102F06BFBE6
:100850004D496423012238460D3102F064FB012228
:100860002946304600F026FD384602F057F80128A8
:10087000FAD1642000F0F4FB00222946304600F053
:1008800019FD4149642301223846C91C02F04BFB83
:100890003D49642301223846083102F044FB3A49BD
:1008A0006423012238460C3102F03DFB64233846B4
:1008B00001220BA902F037FB01222946304600F045
:1008C000F9FC384602F02AF80128FAD1642000F039
:1008D000C7FB00222946304600F0ECFC2A4964237D
:1008E00001223846891C02F01EFB2749642301229D
:1008F0003846C91D02F017FB2349642301223846FC
:100900000B3102F010FB6423384601220AA902F0E1
:100910000AFB01222946304600F0CCFC384601F0A3
:10092000FDFF0128FAD1642000F09AFB002229463D
:10093000304600F0BFFC1449642301223846091DEB
:1009400002F0F1FA1049642301223846891D02F0B1
:10095000EAFA0D496423012238460A3102F0E3FA2B
:1009600009496423012238460D3102F0DCFA0122E4
:100970002946304600F09EFC642000F071FB04B074
:100980002046BDE8F0810000200000242DE9F04160
:100990000024174688461E460546224639464046EC
:1009A00000F088FC642331460422284602F094F9C2
:1009B00001223946404600F07DFC2046BDE8F0812A
:1009C0002DE9F04115460E4600221F4604462946F1
:1009D000304600F06FFC642339460122204602F0C5
:1009E000A2FA00BF01204FF4FA7400BF401CA042DD
:1009F000FBDB01222946304600F05CFC00BF00BF53
:100A0000022100BF491CA142FBDB002229463046DF
:100A100000F050FCBDE8F0812DE9F04115460E468E
:100A200000221F4604462946304600F043FC64235A
:100A300039460222204602F076FA00BF01204FF428
:100A4000FA7400BF401CA042FBDB0122294630465D
:100A500000F030FC00BF00BF022100BF491CA142D2
:100A6000FBDB00222946304600F024FCBDE8F08183
:100A7000704772B6FEE700002DE9F84F044600F01B
:100A800025FC002C009008D094F83500022805D0F1
:100A900080216165002084F83400E3E0C84DC84E31
:100AA000C749183520683036DFF81883DFF8189307
:100AB0008842DFF818A3DFF818B32ED0A8422CD054
:100AC000B0422AD0404528D0484526D0504524D0B1
:100AD000584522D0BE4A183290421ED0BD4A90429C
:100AE0001BD0BC4A1832904217D0BA4A30329042DA
:100AF00013D0B84A483290420FD0B64A6032904282
:100B00000BD0B44A7832904207D0B24A9032904229
:100B100003D0B04AA832904209D1026822F01E02E6
:100B200002602068426922F08002426103E00268AC
:100B300022F00E02026027688F4238464DD0A8424C
:100B40004BD0B04249D0404547D0484545D05045AC
:100B500043D0584541D09E4A183290423DD09D4ADC
:100B600090423AD09B4A1832904236D0994A30325D
:100B7000904232D0974A483290422ED0954A603205
:100B800090422AD0934A7832904226D0914A9032AD
:100B9000904222D08F4AA83290421ED08E4A904274
:100BA0001BD08D4A1432904217D08B4A2832904283
:100BB00013D0894A3C3290420FD0874A503290423B
:100BC0000BD0854A6432904207D0834A78329042F3
:100BD00003D0814A8C32974204D1206E026822F4FD
:100BE0008072026076492068884228D0A84226D0C8
:100BF000B04224D0404522D0484520D050451ED098
:100C000058451CD072491831884218D07149884221
:100C100015D070491831884211D06E493031884260
:100C20000DD06C494831884209D06A496031884208
:100C300005D068497831884201D066499031016811
:100C400021F00101016010E000F040FB0099401A22
:100C500005280AD9202262650020032184F8340087
:100C600084F835100120BDE8F88F3868C007EBD153
:100C7000534A0121206890422ED0A8422CD0B04285
:100C80002AD0404528D0484526D0504524D0584544
:100C900022D04F4B183398421ED04E4B98421BD057
:100CA0004C4B1833984217D04A4B3033984213D0EC
:100CB000484B483398420FD0464B603398420BD094
:100CC000444B7833984207D0424B9033984203D03C
:100CD000404BA833984208D194F85C703F23A06D34
:100CE00007F01F07BB40836007E094F85C30A06DFD
:100CF00003F01F0301FA03F34360206890424DD0D4
:100D0000A8424BD0B04249D0404547D0484545D095
:100D1000504543D0584541D02D4A183290423DD0DD
:100D20002C4A90423AD02B4A1832904236D0294A67
:100D30003032904232D0274A483290422ED0254A53
:100D4000603290422AD0234A7832904226D0214AFB
:100D50009032904222D01F4AA83290421ED01E4AA2
:100D600090421BD01C4A1432904217D01A4A2832A3
:100D7000904213D0184A3C3290420FD0164A50325B
:100D800090420BD0144A6432904207D0124A783213
:100D9000904203D0104A8C3290420BD1D4E9190210
:100DA0004260E06E30B1026822F480720260D4E9E1
:100DB0001C024260002084F8340084F8351052E7A9
:100DC00010000240580002407000024088000240BB
:100DD000A000024010040240085402582DE9F05FC0
:100DE00028B190F83510022904D0802141650120F6
:100DF000BDE8F09F904C904B0168183C18338E4A28
:100E0000DFF83C92A1428D4CDFF838E28E4FDFF8DC
:100E10003CB2DFF83CA28F4D8F4E31D091422FD0A3
:100E200099422DD0A1422BD0494529D0714527D0D8
:100E3000B94225D0DFF810C20CF1180C61451FD063
:100E4000DFF808C2ACF1600C614519D0DFF8FCC1D5
:100E5000ACF1480C614513D0DFF8F0C1ACF1300CB7
:100E600061450DD0DFF8E4C1ACF1180C614507D045
:100E7000594505D0514503D0A94201D0B1422CD1EA
:100E8000DFF8B4C14FF0040880F83580ACF1180CDD
:100E900061451DD091421BD0994219D0A14217D073
:100EA000494515D0714513D0B94211D06648183064
:100EB00081420DD065486038814209D06348483886
:100EC000814205D061483038814201D05F481838EE
:100ED000086820F001000860ABE0D1F800C02CF0F9
:100EE0000E08DFF854C1C1F80080ACF1180C01689D
:100EF000614527D0914225D0994223D0A14221D0EB
:100F000049451FD071451DD0B9421BD0DFF838C10B
:100F10000CF1180C614515D0DFF830C1ACF1600C54
:100F200061450FD0DFF824C1ACF1480C614509D010
:100F3000DFF818C1ACF1300C614503D0DFF80CC10B
:100F4000ACF1180CD1F800C02CF0010CC1F800C0B5
:100F5000DFF8E4804FF0010C0168A8F11808414562
:100F600046D0914244D0994242D0A14240D0494516
:100F70003ED071453CD0B9423AD0334A1832914202
:100F800036D0324A603A914232D0304A483A9142A1
:100F90002ED02E4A303A91422AD02C4A183A914209
:100FA00026D0594524D0514522D0A94220D0B14263
:100FB0001ED02A4A91421BD0284A1432914217D09F
:100FC000264A2832914213D0244A3C3291420FD013
:100FD000224A503291420BD0204A6432914207D0CB
:100FE0001E4A7832914203D01C4A8C32914218D169
:100FF000016E0A6822F480720A6090F85C20816DAC
:1010000002F01F020CFA02F24A60D0E919124A609B
:10101000C16E31B10A6822F480720A60D0E91C12F4
:101020004A600022016D80F8342080F835C001B19B
:1010300088470020DCE600002800024058000240FB
:101040007000024088000240A0000240700402408C
:1010500088040240A0040240B80402400854025828
:1010600070B5044600F032F90546601C02D0044811
:101070000078044400F02AF9401BA042FAD370BD66
:101080000C0000242DE9FC4F01257E4C00234FF07D
:10109000030A4FF0B04E4FF00F0BEBE005FA03F6EA
:1010A00037403A0077D04F68012F05D0022F03D088
:1010B000112F01D0122F1AD187684FEA4308D1F8B7
:1010C0000CC00AFA08F927EA09070CFA08FC4CEAEE
:1010D000070CC0F808C0476891F804C0B743CCF3C8
:1010E000001C0CFA03FC4CEA070CC0F804C0C668EC
:1010F0004FEA430CD1F80880E1460AFA0CF7BE43E8
:10110000019708FA09F848EA0608C0F80C804E680A
:10111000022E01D0122E12D1DE084FEA437C00EBE2
:10112000860600960F69366A4FEADC6C0BFA0CF8FB
:1011300007FA0CF726EA08063743009E37620E7955
:101140000768DDF804C006F0030606FA09F627EA88
:101150000C073E4306604E68F6001CD54A4E3768C1
:1011600047F00207376036689F0706F002060096D0
:1011700023F0030606F1B046B1463F0FD6F80864E7
:10118000DFF808810BFA07FC404526EA0C0603D17C
:101190004FF0000C41E06CE0DFF8F4C0604502D194
:1011A0004FF0010C39E0DFF8ECC0604502D14FF0A0
:1011B000020C32E0DFF8E0C0604502D14FF0030CD2
:1011C0002BE0DFF8D8C0604502D14FF0040C24E0DA
:1011D000DFF8CCC0604502D14FF0050C1DE0DFF810
:1011E000C4C0604502D14FF0060C16E0DFF8B8C06D
:1011F000604502D14FF0070C0FE0DFF8B0C060454A
:1012000002D14FF0080C08E0DFF8A4C0604502D11D
:101210004FF0090C01E04FF00A0C0CFA07FC4CEA05
:10122000060CC9F808C426684F6826EA0206FF03C0
:1012300000D51643266066684F6826EA0206BF039B
:1012400000D516436660D1F804C07646DEF800701B
:101250005FEACC2C27EA020700D517433760D1F8A4
:1012600004C077685FEA8C2C27EA020700D5174391
:1012700077605B1C0A681746DA407FF40FAFBDE861
:10128000FC8F000080000058F4440258000002580F
:101290000004025800080258000C025800100258BE
:1012A0000014025800180258001C0258002002586E
:1012B000002402580AB1816170470904FBE700006D
:1012C00001480068000C70470010005C014880680D
:1012D000704700000C000024024881680278114425
:1012E000816070470C000024032010B500F086F8E0
:1012F00000F0F4FF0F4A104914681368C4F3032286
:1013000003F00F038A5CC95C02F01F0201F01F01A9
:10131000D0400A4A20FA01F1116009490860002012
:1013200000F010F808B1012010BD00F02BF80020EB
:1013300010BD000018440258165200081C0000247A
:101340001800002470B50D4D04462878A0B14FF464
:101350007A71B1FBF0F00A490968B1FBF0F002F0D4
:101360008DF848B9102C07D200222146501E00F0FB
:1013700025F800206C6070BD012070BD0C000024B9
:1013800018000024054808B5016841F00201016019
:10139000006800F00200009008BD0000F44402580C
:1013A000002809DB410900F01F028900012001F13A
:1013B000E0219040C1F80001704700000E4BF0B4EE
:1013C0001B680D46C3F30223C3F10706042E00D9A0
:1013D0000426191D072901D2002300E0DB1E012489
:1013E00004FA06F19C40491E2940641E99401440AD
:1013F0002143F0BC03F0F9BC0CED00E0064900F01D
:10140000070210B54FF6FF040868044B204040EA7D
:1014100002201843086010BD0CED00E00000FA0542
:10142000134970B50A68D243520705D5096801F01F
:101430000701814213D118E00A6822F00702024333
:101440000A60FFF743FF0A4D4FF47A760446083DE1
:1014500007E000BFFFF73AFF001BB04201D90120AF
:1014600070BD2868C0438004F4D4002070BD000023
:101470000C48025810B500F0EBFE05490968054A12
:10148000C1F30211515C01F01F01C84010BD000002
:101490002044025816520008494930B5484C0B1DEB
:1014A0000A68143409681D68246802F00303C5F350
:1014B0000012C1F30531C4F3CC04002914FB02F27D
:1014C00000EE102AF8EE400A75D03F4A9FED3D1A13
:1014D000B7EE000A6BB1DFED3D1A012B01D0022BF4
:1014E00064D002EE101A1168F8EE422A81EEA22AA8
:1014F00021E0334C283C23689B0612D5344B2468EA
:1015000001EE901A1168C4F3C104F8EE612AE340B9
:1015100001EE903AC1F30801F8EE611A81EEA22AB9
:101520000BE001EE901ADFED2B2A00BFF8EE611AF6
:10153000116882EEA12AC1F3080101EE901A116828
:10154000F8EE611A40EE811A71EE800A62EE200A0E
:10155000C1F3462101EE101AB8EE411A31EE001A1D
:10156000C0EE811ABCEEE11A80ED001A1168C1F3D9
:10157000064101EE101AB8EE411A31EE001AC0EE23
:10158000811ABCEEE11A80ED011A1168C1F30661FF
:1015900001EE101AB8EE411A31EE000A80EE801A00
:1015A000BCEEC10A80ED020A30BD04E001EE901AE3
:1015B000DFED092ABAE70021016041608160F3E7AD
:1015C0002844025800000039384402580024744A64
:1015D0000090D0030024744C0024F44A494930B5EB
:1015E000484C0B1D0A681C3409681D68246802F009
:1015F0000303C5F30022C1F30551C4F3CC04002951
:1016000014FB02F200EE102AF8EE400A75D03F4AB1
:101610009FED3D1AB7EE000A6BB1DFED3D1A012BCD
:1016200001D0022B64D002EE101A1168F8EE422AA3
:1016300081EEA22A21E0334C283C23689B0612D578
:10164000344B246801EE901A1168C4F3C104F8EE1B
:10165000612AE34001EE903AC1F30801F8EE611A05
:1016600081EEA22A0BE001EE901ADFED2B2A00BFDB
:10167000F8EE611A116882EEA12AC1F3080101EEA9
:10168000901A1168F8EE611A40EE811A71EE800A24
:1016900062EE200AC1F3462101EE101AB8EE411A9B
:1016A00031EE001AC0EE811ABCEEE11A80ED001A8C
:1016B0001168C1F3064101EE101AB8EE411A31EE7D
:1016C000001AC0EE811ABCEEE11A80ED011A116811
:1016D000C1F3066101EE101AB8EE411A31EE000AAC
:1016E00080EE801ABCEEC10A80ED020A30BD04E033
:1016F00001EE901ADFED092ABAE70021016041608E
:101700008160F3E728440258000000394044025841
:101710000024744A0090D0030024744C0024F44A3E
:101720002DE9FC5F044650F8241B002500902E464E
:101730000801FE4FDFF8F8831DD5606E50B1B0F59B
:10174000801F0CD0B0F5001F0ED0B0F5401F1DD08B
:1017500001250FE0386840F40030386016E00221BF
:10176000201D02F083FB03E00098022102F00EFC32
:1017700005000BD02E462088C00523D5606D0528B6
:101780001ED2DFE800F00C11161B1B00626ED8F8A9
:10179000001021F440111143C8F80010EBE738683D
:1017A00040F40030386009E00021201D02F05EFBAB
:1017B00003E00098002102F0E9FB05466DB100E06E
:1017C00001252E462088800528D5A06D80281ED0B2
:1017D0000CDC90B140280ED114E0626DD8F80010F6
:1017E00021F007011143C8F80010EBE7C02813D01F
:1017F000B0F5807F10D001250FE0386840F400304C
:10180000386009E00021201D02F030FB03E0009861
:10181000002102F0BBFB054695B12E462088DFF87B
:101820001093400509F108092CD5D4F8A400B0F5AF
:10183000800F20D00DDCA0B1B0F5001F0FD115E056
:10184000A26DD8F8001021F4E0711143C8F800101F
:10185000E4E7B0F5C00F13D0B0F5000F10D00125AC
:101860000FE0386840F40030386009E00021201DA6
:1018700002F0FCFA03E00098002102F087FB054625
:1018800075B12E46208800052DD5D4F8A800B0F1FA
:10189000007F21D00EDCA8B1B0F1807F10D116E01E
:1018A000D4F8A420D9F8001021F460011143C9F83C
:1018B0000010E7E7B0F1407F13D0B0F1806F10D097
:1018C00001250FE0386840F40030386009E000215D
:1018D000201D02F0CBFA03E00098002102F056FB35
:1018E00005466DB12E46206880011FD5A06CD8B189
:1018F00010280FD0202812D0302815D0012514E050
:10190000D4F8A820D9F8001021F0E0611143C9F8FB
:101910000010E8E7386840F40030386004E0022145
:10192000201D02F0A3FA05466DB12E462088C004A2
:101930002BD5E06DB0F5005F20D00DDCA0B1B0F587
:10194000805F0FD115E07A48A26C001F016821F07A
:10195000300111430160E9E7B0F5405F13D0B0F505
:10196000804F10D001250FE0386840F40030386017
:1019700009E00021201D02F079FA03E0009800211F
:1019800002F004FB054685B12E462088800429D547
:10199000206EB0F5403F23D010DC08B3B0F5803F97
:1019A00014D0B0F5003F0FD115E0E26DD8F800106B
:1019B00021F4E0411143C8F80010E6E7B0F5802FAC
:1019C0000ED0B0F5A02F0BD001250AE00121201D7B
:1019D00002F04CFA03E00098012102F0D7FA054624
:1019E0008DB12E46208840042AD5D4F8AC00B0F141
:1019F000405F23D010DC08B3B0F1805F14D0B0F1A9
:101A0000005F0FD115E0226ED8F8001021F4E0211C
:101A10001143C8F80010E5E7B0F1804F0ED0B0F1E7
:101A2000A04F0BD001250AE00121201D02F01EFA73
:101A300003E00098012102F0A9FA05466DB12E4697
:101A4000208800041FD5E06ED8B1B0F1805F0ED0C1
:101A5000B0F1005F10D0012514E0D4F8AC20D9F823
:101A6000001021F0E0411143C9F80010E8E73868A0
:101A700040F40030386004E00121201D02F0F6F946
:101A800005466DB12E462068C0011ED5606CD0B1F0
:101A900001280ED0022811D0032814D0012513E00C
:101AA000E26ED8F8001021F040511143C8F8001040
:101AB000E9E7386840F40030386004E00221201D76
:101AC00002F0D4F9054685B12E462068DFF85CB0F7
:101AD0004002ABF11C0B57D51648016841F48071E8
:101AE0000160FFF7F3FB82460EE01148626C001FB5
:101AF000016821F0030111430160E6E7FFF7E6FB0F
:101B0000A0EB0A0064283DD80A480068C005F5D556
:101B10007DBBDFF81CA0B4F8B0200AF1200ADAF887
:101B2000001002F4407001F4407105E02C440258AA
:101B30005044025800480258814211D0DAF800108F
:101B4000DAF8002021F4407142F48032CAF8002013
:101B5000DAF8002022F48032CAF80020CAF8001017
:101B6000D4F8B000B0F5807F21D1FFF7AFFB019032
:101B700019E008E0FFF7AAFB0199411A41F2883009
:101B8000814210D903252E462078DFF844A4C007EF
:101B90003DD0A06F182838D026DC80B3082829D083
:101BA000102825D12CE0DAF800008007E2D5D4F81F
:101BB000B010C1F30120032858460DD0016821F46C
:101BC0007C510160B4F8B020DAF80010C2F30B02C7
:101BD0001143CAF80010D7E7FE4A036802EA11125F
:101BE00023F47C511143ECE720280ED028280CD098
:101BF00001250BE00121201D02F038F904E004E08A
:101C00000098012102F0C2F905465DB12E46207808
:101C100080071ED5606F062819D2DFE800F0160C89
:101C200011161616A26FDAF8001021F038011143D0
:101C3000CAF80010EBE70121201D02F017F903E0BC
:101C40000098012102F0A2F9054675B100E00125D6
:101C50002E46207840071FD5D4F89000062819D2C8
:101C6000DFE800F0160C11161616626FDAF8001095
:101C700021F007011143CAF80010EAE70121201DF5
:101C800002F0F4F803E00098012102F07FF9054624
:101C90009DB100E001252E46207880062BD5D4F892
:101CA0008C00B0F1405F24D011DC10B3B0F1805F44
:101CB00015D0B0F1005F10D116E0D4F89020D9F81B
:101CC000001021F007011143C9F80010E4E7B0F15A
:101CD000804F0ED0B0F1A04F0BD001250AE00021BB
:101CE000201D02F0C3F803E00098022102F04EF933
:101CF00005468DB12E46207840062BD5D4F89800A5
:101D0000B0F5406F24D011DC10B3B0F5806F15D062
:101D1000B0F5006F10D116E0D4F88C20DAF800107E
:101D200021F0E0411143CAF80010E4E7B0F5805F0C
:101D30000ED0B0F5A05F0BD001250AE00021201DD8
:101D400002F094F803E00098022102F01FF9054622
:101D50008DB12E46207800062BD5D4F89C00B0F526
:101D6000C04F24D011DC10B3B0F5005F15D0B0F532
:101D7000804F10D116E0D4F89820D9F8001021F443
:101D8000E0511143C9F80010E4E7B0F5004F0ED060
:101D9000B0F5204F0BD001250AE00021201D02F0F4
:101DA00065F803E00098022102F0F0F805464DB115
:101DB0002E46207800071ED5D4F88000B0F5805F4D
:101DC0000AD00FE0D4F89C20D9F8001021F460412B
:101DD0001143C9F80010ECE70098022102F0D6F890
:101DE00000B10126D4F88020DAF8001021F4405127
:101DF0001143CAF800102078C00613D5D4F8940017
:101E0000B0F5807F05D10098022102F0BFF800B143
:101E10000126D4F89420D9F8001021F44071114320
:101E2000C9F800102068000316D5D4F8A00038B116
:101E3000B0F5803F09D0B0F5003F0BD001250AE096
:101E40000021201D02F012F803E00098022102F0A8
:101E50009DF8054685B12E462068400322D5D4F86A
:101E60008400B0F5801F11D0B0F5001F13D0B0F57D
:101E7000401F15D0012514E0D4F8A020D9F8001097
:101E800021F440311143C9F80010E5E7386840F407
:101E90000030386004E00098012102F077F8054630
:101EA00055B12E462068C0031CD5E06C70B1B0F56A
:101EB000803F10D0012514E0D4F88420DAF8001017
:101EC00021F440111143CAF80010EBE7386840F4E0
:101ED0000030386004E00221201D01F0C7FF0546F4
:101EE000CDB12E462068800005D50098022102F071
:101EF0004DF800B10126206880031BD5E06FB8B112
:101F0000B0F5807F10D0B0F5007F11D0B0F5407FE4
:101F10000ED001250DE02E48E26C0838016821F44E
:101F2000803111430160DDE7386840F400303860EB
:101F3000F5B32E462068C00207D5226FD8F80010EE
:101F400021F000411143C8F800102068C00008D5F6
:101F5000D4F8B420DBF8001021F480411143CBF811
:101F600000102068800207D5A26ED8F8001021F07A
:101F700080711143C8F80010206840000CD5DBF8D0
:101F8000001021F40041CBF80010DBF80010D4F869
:101F9000B8201143CBF800102068002807DA0C485D
:101FA000226D0838016821F040511143016000E0C2
:101FB00014E02068000208D5D4F88820DAF8001070
:101FC00021F440011143CAF8001086B1012003E05A
:101FD00054440258CFFFFF00BDE8FC9FE26FDAF8DF
:101FE000001021F440711143CAF80010A2E700204C
:101FF000EDE700002DE9F05F04000F467ED0DFF82A
:102000003882D8F8000000F00F00B8420CD2D8F89F
:10201000001021F00F013943C8F80010D8F8000073
:1020200000F00F00B84269D12078844D40070AD5EE
:102030002069296801F07001884204D9296821F0DB
:1020400070010143296020787C4E361D00070AD5B7
:102050006069316801F07001884204D9316821F06B
:102060007001014331602078C0060AD5A06931684B
:1020700001F4E061884204D9316821F4E061014350
:1020800031602078DFF8B4B180060BF1080B0CD575
:10209000E1695846DBF8002002F07002914204D951
:1020A000026822F070020A430260207880070AD595
:1020B000E068296801F00F01884204D9296821F0FD
:1020C0000F01014329602078C0073ED05B49A26818
:1020D0002868183920F4706010432860606802286E
:1020E00018D0032819D00968012819D049070029F8
:1020F0004ADADFF848A1AAF1080A00E044E0DAF879
:10210000002022F007020243CAF80020FFF7DEF8A1
:10211000814612E009688903E9E709688901E6E771
:10212000C905E4E7FFF7D2F8A0EB090141F28830D6
:10213000814202D90320BDE8F09F6168DAF800000F
:1021400000F03800B0EBC10FECD1207880070AD541
:10215000E068296801F00F01884204D2296821F063
:102160000F0101432960D8F80010404601F00F012B
:10217000B9420BD9016821F00F01394301600068B1
:1021800000F00F00B84201D00120D4E720784007CA
:102190000AD52069296801F07001884204D22968B3
:1021A00021F0700101432960207800070AD5606999
:1021B000316801F07001884204D2316821F0700169
:1021C000014331602078C0060AD5A069316801F466
:1021D000E061884204D2316821F4E061014331605A
:1021E000207880060CD5E1695846DBF8002002F023
:1021F0007002914204D2026822F070020A43026027
:1022000000F06CF80E492A682B68C2F3032203F031
:102210000F038A5CC95C02F01F0201F01F01D0406D
:10222000084A20FA01F11160074908600748006870
:10223000BDE8F05FFFF786B800200052184402584E
:10224000165200081C00002418000024100000246E
:1022500030B500F043F80B4A0B490C4B1568146875
:10226000C5F3032204F00F048A5C095D02F01F022B
:1022700001F01F01D040064A20FA01F119601060F8
:10228000084630BD18440258165200081C000024AD
:102290001800002400B5FFF7DBFF05490968054A6F
:1022A000C1F30211515C01F01F01C84000BD0000E4
:1022B0001C4402581652000800B5FFF7C9FF054933
:1022C0000968054AC1F30221515C01F01F01C840B1
:1022D00000BD00001C44025816520008454970B564
:1022E00045480968434B103B11F0380208D00111F2
:1022F000082A03D0102A0BD0182A0BD0084670BD2C
:1023000019688906FBD51968C1F3C101C84070BDC1
:102310003A4870BD3749374D18310C1D24350A68CD
:10232000096826682D6802F0030406F00102C1F373
:102330000511C5F3CC0515FB02F200EE102AB8EE2C
:10234000400AE9B32F4ADFED2E0AB7EE001A6CB14E
:10235000DFED2D1A012C01D0022C43D002EE101A11
:102360001068F8EE422A81EEA22A1EE01C68A4063C
:1023700011D51B6801EE901A1168C3F3C103F8EE82
:10238000612AD84001EE900AC1F30800F8EE611A04
:1023900081EEA22A0BE001EE901ADFED1C2A00BFAD
:1023A000F8EE611A106882EEA12AC0F3080001EE6F
:1023B000900AF8EE611A40EE201A31EE810A00E030
:1023C00015E022EE000A1068C0F34620401C00EE23
:1023D000900AF8EE600A80EE201ABCEEC10A10EEF8
:1023E000100A70BD01EE901ADFED092AD8E700202F
:1023F00070BD0000104402580090D00300127A0013
:1024000000000039304402580024744A0024744CFF
:102410000024F44A2DE9F05F04007CD0FF4F2078BF
:10242000FE4D1837DFF8F493103DC00748D0D9F8B7
:102430000000396800F03800102815D0182803D1A2
:1024400001F0030002280FD06068B0F5803F12D081
:1024500010B1B0F5A02F18D0286820F48030286083
:10246000286820F4802009E02868800328D5606867
:102470000028D2D024E0286840F4803028606068CA
:1024800088B1FEF723FF064609E0286840F4802063
:102490002860F0E7FEF71AFF801B64287ED82868C2
:1024A0008003F7D50CE0FEF711FF064605E000BFFC
:1024B000FEF70CFF801B6428F0D828688003F7D44F
:1024C000207841F20308D54E0C3E800753D5D9F849
:1024D0000000396810F038000ED0182801D18807A4
:1024E0000AD0E068A8B3296821F0190101432960E6
:1024F000FEF7ECFE82461BE02868400702D5E06844
:1025000000288AD0FEF7DCFE40451BD82069402811
:1025100012D0316800E0CCE021F47C3141EA003097
:10252000306028E0FEF7D2FEA0EB0A000228B5D802
:1025300028684007F6D5E5E7306820F47C3040F4A1
:102540000030EDE7207C316821F0FE4141EA006077
:10255000E6E7FFE7286820F001002860FEF7B6FEF6
:10256000824605E0FEF7B2FEA0EB0A00022895D8ED
:1025700028684007F6D42078C0065FD5D9F8000057
:10258000DFF898B2396800F03800ABF1040B082886
:1025900012D0182805D101F0030000E0EAE001287C
:1025A0000AD0E0690028286838D040F08000286010
:1025B000FEF78CFE824623E02868C00523D5E0693B
:1025C000802876D11FE0206A202821D0316821F0B0
:1025D000F84141EA8060306030E000BF94F820109C
:1025E000DBF8002022F07C5242EA0161CBF80010B7
:1025F00024E000BFFEF76AFEA0EB0A00022896D88E
:102600002868C005F6D5FEF75BFE4045E6D8DAE758
:10261000306820F0F84040F08040DCE720F0800097
:102620002860FEF753FE064605E000BFFEF74EFEAB
:10263000801B02289BD82868C005F7D420780007A3
:1026400029D576486169643000298046016811D037
:1026500041F001010160FEF739FE064605E000BFCA
:10266000FEF734FE801B0228C9D8D8F80000800786
:10267000F6D510E021F001010160FEF727FE0646C5
:1026800005E000BFFEF722FE801B022872D8D8F8B2
:1026900000008007F6D42078800623D5A0690028A2
:1026A000286810D040F480502860FEF70FFE0646E0
:1026B00005E02CE1FEF70AFE801B02285AD82868A4
:1026C0008004F7D50EE020F480502860FEF7FEFD70
:1026D000064604E0FEF7FAFD801B02284AD8286867
:1026E0008004F7D4207840074FD5DFF83481D8F83C
:1026F000001041F48071C8F80010FEF7E7FD0646AF
:1027000005E000BFFEF7E2FD801B642832D8D8F850
:102710000000C005F6D5414EA068603601280AD0F9
:1027200008B1052813D0306820F00100306030680F
:1027300020F0040002E0306840F001003060A06842
:1027400041F2883A90B1FEF7C1FD80460AE0306858
:1027500040F004003060EEE7FEF7B8FDA0EB0801A2
:10276000514507D830688007F6D50EE0FEF7AEFD7C
:10277000804607E084E000BFFEF7A8FDA0EB08015B
:1027800051457DD830688007F6D4606AF0B3DFF831
:102790008C80D9F8001008F12008C1F3C201032988
:1027A0006FD00228286820F08070286003D0FEF7E0
:1027B0008DFD044680E0FEF789FD064605E000BF7A
:1027C000FEF784FD801B022873D828688001F7D4A7
:1027D000E26A40F2F331386854F8283F884340EA0F
:1027E000021018433860217B4FF4FE0C22894FF011
:1027F000FE47208A4902267D521E401EA1F5007127
:1028000089B20CEA0040C2F3080200E081E0114303
:10281000761E0143014807EA066203E010440258AD
:10282000004802581C3011433B4AC8F800100168A8
:1028300021F00101016011684FF6F876236AB14377
:1028400041EAC30111600168A26921F00C01114342
:1028500001600168E26921F0020111430160016831
:1028600041F480310160016841F400310160016888
:1028700041F480210160016841F00101016001E043
:1028800017E01DE0286840F080702860FEF71EFD0C
:10289000044604E0FEF71AFD001B022809D8286848
:1028A0008001F7D535E000BFFEF710FD001B0228C0
:1028B00002D90320BDE8F09F28688001F4D428E005
:1028C00039680128D8F8000021D0A26A01F003037A
:1028D00093421CD1E26AC1F305118A4217D1216BE0
:1028E000C0F30802491E8A4211D1616BC0F346222F
:1028F000491E91420BD1A16BC0F30642491E914281
:1029000005D1E16BC0F30660491E814201D0012070
:10291000D0E70020CEE700003444025890F8810050
:10292000704700002DE9F047040029D04E4D4FF0CC
:10293000000920684D4B4E4AA842C4F8289006D0A2
:10294000984204D0904202D0E1680F2918D8E1687B
:102950004FF0010AE76B0831C9080AEB57167143BB
:10296000A84205D0984203D0904201D0082907D848
:10297000A84203D0984201D0904204D1102902D934
:102980000120BDE8F08794F8810020B9204684F842
:10299000809000F06FF8022084F8810020680168C0
:1029A00021F001010160A069B0F1806F11D1606870
:1029B000B0F5800F01D018B10BE0A06B20B108E09A
:1029C000A06BB0F1805F04D12068016841F48051B0
:1029D0000160A56AE0692368E16B2843E268084367
:1029E00010439860D4E90D02D4E90571636A256942
:1029F0001843D4F820C00A43266810432843A56D25
:102A00003843D4E90182D4E9123140EA0C0040EAAB
:102A100008000843104318432843F060606868B911
:102A20002068816821F4C05141F400618160206810
:102A3000816821F4C06141F4806181602068016D8A
:102A400021F0010101656068400206D52068626DD1
:102A5000C16821F000411143C160C4F8849084F83A
:102A600081A000208DE700000030014000380040C8
:102A7000003C00402DE9F04FB5B0074614212FA8C7
:102A8000FDF723FDBC216846FDF71FFD874C00269E
:102A900038680225864A103CDFF8109205279042DC
:102AA0004FF480414FF4805821D16846CDF8008022
:102AB0001791FEF735FE08B1FDF7DBFFD9F80010DE
:102AC00041F48051C9F80010D9F8000000F480509A
:102AD0003490206840F00100206020682FA900F0A9
:102AE00001003490E02081E8610072483CE0724AC5
:102AF0004FF0060BDFF8B4A19042AAF1080A3AD1D0
:102B00006846CDF800801791FEF70AFE08B1FDF780
:102B1000B0FFDAF8001041F48041CAF80010DAF88A
:102B2000000000F480403490206840F004002060F1
:102B3000206800F004003490206840F0020020601B
:102B400020682FA9CDE9305600F00200CDF8BCB0C6
:102B50003296CDE933705948FEF794FA2FA94FF415
:102B6000806081E861005648CDE93267FEF78AFA55
:102B700035B0BDE8F08F534A904243D16846CDF856
:102B800000801791FEF7CCFD08B1FDF772FFDAF86F
:102B9000001041F40041CAF80010DAF8000000F417
:102BA00000403490206840F004002060206800F06D
:102BB00004003490206840F00200206020682FA9B3
:102BC0003E4F5C4600F0020034904FF48060CDE947
:102BD0002F05CDE9325B38463195FEF753FACDE942
:102BE0003056CDE932642FA93846CDF8BC80FEF7C7
:102BF00049FA1020CDE92F0531482FA9CDE93264DB
:102C00003195B3E73049884229D1D9F8001041F411
:102C10000051C9F80010D9F8000000F400503490B9
:102C2000206840F01000206020682FA9274C00F099
:102C3000100034900420CDE92F05CDE9325720460D
:102C40003195FEF71FFA202031AACDE92F052FA9D3
:102C5000204682E8E000FEF715FA402021E01C49FA
:102C6000884285D1D9F8001041F48011C9F80010CC
:102C7000D9F8000000F480103490206840F0200063
:102C8000206020682FA9134C00F020003490802091
:102C900081E86100CDE932572046FEF7F3F94FF4A1
:102CA00040702FA981E8610020465DE7F04402589A
:102CB000003001400000025800380040000802586F
:102CC00000040258003C004000340140001002584B
:102CD00000500140001402582DE9FF5F04461646DB
:102CE0000F461D4600214FF0040BD4E9000200916D
:102CF00030300290B2F5800F01D1A06888B194F80D
:102D00008000012819D04FF0010984F88090FEF767
:102D1000DDFA94F881108246002001290FD00221AB
:102D200026E084F881B03A461146204600933346A7
:102D300000F014FA04B0BDE8F09F0220FAE7B7B142
:102D4000AEB1A26880466766A4F8686084F881B076
:102D5000C4F88400A4F86A60E065A4F86000A4F8F0
:102D60006200B2F5C02F2067606705D009E001213D
:102D700084F880000846DDE72068016821F40061DE
:102D80000160206841686FF30F01314341602068A2
:102D9000016841F0010101606068B0F5800F04D165
:102DA0002068016841F400710160E0680F282ED9A5
:102DB00048F20806B4F86A00002859D02068416932
:102DC00031420BD0006B616E0860606E001D606662
:102DD000B4F86A00401EA4F86A00EBE7FEF776FA42
:102DE000A0EB0A00A84202D3681CE3D001E0002D4A
:102DF000E0D1204601F05AF9D4F8842084F880808C
:102E000042F48071C4F8841084F8819079E0072836
:102E10002AD868E02068416911F4604F19D04169EF
:102E2000090409D5006B616E0860606E001D606664
:102E3000B4F86A00801E09E002980088616E08807C
:102E4000606E801C6066B4F86A00401EA4F86A00D8
:102E50000AE0FEF73BFAA0EB0A00A84202D3681C86
:102E600002D0C6E7002DC4D0B4F86A000028D1D142
:102E70003DE02068416911F4604F2AD0416909049E
:102E800009D5006B616E0860606E001D6066B4F865
:102E90006A00001F1AE0416901F4C041B1F5005F0A
:102EA0000AD902980088616E0880606E801C606696
:102EB000B4F86A00801E09E090F83000616E087076
:102EC000606E401C6066B4F86A00401EA4F86A0098
:102ED00009E0FEF7FBF9A0EB0A00A84202D3681C48
:102EE00001D010E07DB1B4F86A000028C1D12046BD
:102EF00001F0DCF884F88190D4F8841084F88080A4
:102F000079B1012016E7204601F0D0F8D4F88420EA
:102F100084F8808042F48070C4F8840084F8819042
:102F2000EFE7009806E72DE9FC5F044600681746C6
:102F30008A4600211D4694F8802000F1200B019163
:102F4000012A0DD04FF0010884F88080FEF7BEF909
:102F5000814694F881000026012804D002201EE05A
:102F60000220BDE8FC9FBAF1000F17D0B7B1A168ED
:102F70000320C4F85CA0A4F8607084F88100C4F851
:102F80008460A4F862706666A4F86860A4F86A6059
:102F9000B1F5C02F6667266704D008E0012084F8E9
:102FA0008060DEE72068016841F40061016020680C
:102FB00041686FF30F01394341602068016841F0B7
:102FC000010101606068B0F5800F04D120680168DC
:102FD00041F400710160E0680F281AD82CE02068E5
:102FE000416989070BD5E16D09680162E06D001D3B
:102FF000E065B4F86200401EA4F8620009E0FEF744
:1030000065F9A0EB0900A84202D3681C01D005E0D5
:1030100025B1B4F862000028E1D183E0204601F038
:1030200045F8D4F8841084F8806041F48071C4F8C5
:10303000841084F881808DE007282CD86EE0206809
:10304000416989071CD5B4F8621001290BD9E16BDD
:1030500049B1E16D09680162E06D001DE065B4F8F9
:103060006200801E09E0E06D0188ABF80010E06DA1
:10307000801CE065B4F86200401EA4F862000AE01B
:10308000FEF724F9A0EB0900A84202D3681C02D085
:10309000C4E7002DC2D0B4F862000028CFD141E0CF
:1030A0002068416989072ED5B4F8621003290CD92C
:1030B000E16B402909D9E16D09680162E06D001DED
:1030C000E065B4F86200001F1AE0B4F8621001294C
:1030D0000CD9E16B51B1E06D0188ABF80010E06DE7
:1030E000801CE065B4F86200801E09E0E16D09789B
:1030F00080F82010E06D401CE065B4F86200401ECE
:10310000A4F862000AE0FEF7E1F8A0EB0900A8428B
:1031100002D3681C02D081E7002DB9D0B4F8620058
:103120000028BDD100224B4608212046009501F021
:103130001BF828B1D4F8840040F02000C4F88400C3
:10314000204600F0B3FF84F88180D4F8840084F82E
:10315000806008B1012004E7019802E72DE9FF4FE4
:1031600083B090F880100446006801294FF00001F8
:10317000109F1D46019100F1200100F1300093469F
:103180000291009014D04FF0010A84F880A0FEF75D
:103190009DF8804694F881006368002101282E463E
:1031A0004FF480020CD0934208D1A36833B903E0F6
:1031B000022007B0BDE8F08F042801D0022037E0DC
:1031C000049898B3BBF1000F31D07DB394F881001F
:1031D000042802D0052084F8810089460846C4F8F6
:1031E0008410C4F864B0A4F86A50A4F86850049934
:1031F000E165A4F86250A4F8605020676067206819
:1032000041686FF30F01294341602068016841F074
:10321000010101606068904204D12068016841F4B6
:1032200000710160E0680F2835D846E0FFE7012013
:1032300084F88010BDE72068416989070DD565B124
:10324000E16D09680162E06D001DE065B4F862009F
:10325000401EA4F86200B4F8625048F208022068E8
:10326000416911420DD066B1006B616E0860606EFD
:10327000001D6066B4F86A00401EA4F86A00B4F845
:103280006A60FEF723F8A0EB0800B84202D3781C6E
:1032900001D004E01FB155EA0600CCD1D2E02046AF
:1032A00000F004FFD4F8842084F8809042F4807108
:1032B000C4F8841084F881A0DCE007284DD8BEE073
:1032C0002068416989071CD5DDB1012D0BD9E16B5F
:1032D00049B1E16D09680162E06D001DE065B4F877
:1032E0006200801E09E0E06D018802980180E06DB7
:1032F000801CE065B4F86200401EA4F86200B4F8D7
:1033000062502068416911F4604F1BD0D6B1416909
:10331000090409D5006B616E0860606E001D60666F
:10332000B4F86A00801E09E000980088616E088089
:10333000606E801C6066B4F86A00401EA4F86A00E3
:10334000B4F86A60FDF7C2FFA0EB0800B84202D3F0
:10335000781C02D0A3E7002FA1D055EA0600AFD118
:1033600070E02068416989072CD55DB3032D0CD925
:10337000E16B40290BD9E16D09680162E06D001D28
:10338000E065B4F86200001F18E0012D0CD9E16B74
:1033900051B1E06D018802980180E06D801CE0650C
:1033A000B4F86200801E09E0E16D097880F8201011
:1033B000E06D401CE065B4F86200401EA4F86200B5
:1033C000B4F862502068416911F4604F2CD05EB3AC
:1033D0004169090409D5006B616E0860606E001DCB
:1033E0006066B4F86A00001F1AE0416901F4C04148
:1033F000B1F5005F0AD900980088616E0880606EA0
:10340000801C6066B4F86A00801E09E090F8300005
:10341000616E0870606E401C6066B4F86A00401E01
:10342000A4F86A00B4F86A60FDF750FFA0EB08004A
:10343000B84202D3781C02D031E7002F8AD055EA77
:1034400006008ED10022434608212046009700F056
:103450008BFE28B1D4F8840040F02000C4F884002A
:10346000204600F023FE84F881A0D4F8841084F86C
:10347000809009B101209CE601989AE6401EB0F1C7
:10348000807F10B501D3012010BD4FF0E0246061B2
:103490000F21601701F0A9FC0020A0610721216124
:1034A00010BD30B590F88010012918D0012280F8A5
:1034B00080202421C0F884100022202450F8641BAE
:1034C0000B680D6823F0005325F001050D600260C4
:1034D00050F8641C0B6004620277104630BD022075
:1034E00030BD7047704770B5044690F880000128E1
:1034F0001DD0012284F880202420C4F88400206894
:103500000568026822F0010202602068826822F0E9
:1035100060620A438260204600F02EFF226820216C
:1035200000201560C4F8841084F8800070BD02206B
:1035300070BD70B5044690F8800001281DD00122AE
:1035400084F880202420C4F884002068056802687C
:1035500022F0010202602068826822F060420A4381
:103560008260204600F008FF2268202100201560BC
:10357000C4F8841084F8800070BD022070BD7047CC
:10358000704770472DE9F04103680446002540F676
:103590000F06D86919689A68304209D186067DD528
:1035A00001F0200602F080573E4377D0216F39E1C9
:1035B000AF4EB04F16400F4037436FD0C70709D00A
:1035C000CF0507D501271F62D4F88C3043F00103E3
:1035D000C4F88C3083070AD5D30708D027680223A4
:1035E0003B62D4F88C3043F00403C4F88C304307BA
:1035F0000AD5D30708D0276804233B62D4F88C305F
:1036000043F00203C4F88C3003070CD501F020030B
:10361000334308D0266808233362D4F88C3043F053
:103620000803C4F88C3003050BD54B0109D5266877
:103630004FF400633362D4F88C3043F02003C4F8B5
:103640008C30D4F88C30002B34D0800609D501F0B2
:10365000200002F08051084303D0216F09B12046B9
:1036600088472168D4F88C008968490602D410F094
:10367000280F21D0204600F03FFF206881684906CE
:1036800015D5816821F040018160E06F78B17A49F9
:103690000165E06FFDF7A2FB002800E012E009D011
:1036A000E06F016D00E02046BDE8F041084720468C
:1036B000FFF767FFBDE8F0812046FFF762FFC4F81F
:1036C0008C50F7E7E76E2026012F71D1C7066FD522
:1036D000CF066DD51020186222689068400669D523
:1036E000E16F664B0868984234D0644B18339842B7
:1036F00030D0624B303398422CD0604B48339842E4
:1037000028D05E4B6033984224D05C4B783398428B
:1037100020D05A4B903398421CD0584BA833984233
:1037200018D0574B984215D0554B1833984211D0AA
:10373000534B303398420DD0514B4833984209D007
:103740004F4B6033984205D04D4B7833984201D0AF
:103750004B4B903340680004000CABD0B4F85C30A5
:103760008342A7D9A4F85E00C869B0F5807F18D05D
:10377000106820F4807010602068816821F00101D9
:1037800081602068816821F040018160C4F8886010
:10379000E5662068016821F010010160E06FFDF727
:1037A0006BF9B4F85C00B4F85E10401A81B220E006
:1037B00023E0FFE7B4F85C00B4F85E10B4F85E30C4
:1037C000401A81B2002BC8D00029C6D010682D4BFA
:1037D00020F4907010602068826802EA0302826020
:1037E000C4F88860E56625672068026822F0100248
:1037F00002602046FFF775FE5CE7C70209D5570255
:1038000007D54FF4801018622046BDE8F041FFF75D
:10381000B7BE07060AD501F0800702F4000217437D
:1038200004D0616F00297FF43EAF43E742060CD518
:103830004A060AD51968204621F040011960C4F8EB
:103840008460656700F029F934E7020206D54A0072
:1038500004D52046BDE8F041FFF791BEC001CBD5AD
:103860000029C9DA2046BDE8F041FFF73BBE000061
:103870000100001020010004E5440008100002408F
:1038800010040240FEFFFFEF10B5040003D0D4F88F
:10389000840010B107E0012010BD002084F88000F2
:1038A000204600F027F82420C4F88400206801682E
:1038B00021F001010160204601F002F80128EBD05F
:1038C000A06A10B1204600F079FD2068416821F41B
:1038D000904141602068816821F02A018160206860
:1038E000016841F0010101602046BDE8104000F090
:1038F000C9BD000010B586B0044614216846FCF727
:10390000E4FD17492068884228D11648016841F42F
:1039100000210160006800F400200590114808387B
:10392000016841F00201016000680823022200F0F2
:103930000200059000204FF4407100916946CDE9E6
:103940000120CDE903030848FDF79CFB0022342049
:103950001146FDF733FD3420FDF722FD06B010BD02
:10396000004C0040E84402580004025870B4D0F8FB
:103970008830202B1BD1B9B1B2B190F88030012B27
:1039800015D0036801260B4D002480F88060C466C2
:10399000AB4206D05C68240203D51C6844F0806406
:1039A0001C6070BC01F062B9012070BC704702203D
:1039B000FBE70000000C00580749212210B5A1F1D7
:1039C000B000FFF7D3FF04492022BDE81040A1F169
:1039D0002000FCF748BD0000880300242DE9F843CF
:1039E0000446D0F884001F4616460D46202852D1C2
:1039F000DDB1D6B194F8800001284CD0012084F8C4
:103A0000800021224FF00008C4F88C80C4F8842084
:103A10001834FDF75BFC814654F8100CA687E68746
:103A2000183CB0F5805F03D004E00120BDE8F883C6
:103A3000206920B12E46002584F8808010E0002601
:103A4000FAE78021204601F07DF9B8B9C6B116F831
:103A5000010B21688862B4F85600401EA4F8560095
:103A6000B4F856004B464FF0000200970028E8D10A
:103A70004FF04001204601F065F938B10320D5E749
:103A800035F8020B2168C0F30800E3E72020C4F8F2
:103A900084000020CAE70220C8E77047FEE7000064
:103AA0002DE9F04F87B014216846FCF70EFD4F4812
:103AB000016841F010010160016801F010010591F9
:103AC000016841F020010160016801F020010591C9
:103AD000016841F080010160016801F080010591F9
:103AE000016841F004010160016801F004010591E1
:103AF000016841F001010160016801F001010591D7
:103B0000016841F002010160016801F002010591C4
:103B1000016841F040010160016801F04001059138
:103B2000016841F00801016000684FF46056DFF859
:103B3000C090002200F00800314605904846FDF78D
:103B4000B9FBDFF8B0A04FF4F857002239465046D1
:103B5000FDF7B0FBDFF8A0B000227C215846FDF74E
:103B6000A9FB4FF40048254800224146FDF7A2FB7F
:103B7000234800221B21FDF79DFB00240096012510
:103B800069464846CDE901540394FDF77BFA009756
:103B90006946CDE9015450460394FDF773FA7C2041
:103BA0000090CDE90154694658460394FDF76AFA3E
:103BB000CDF800806946CDE9015410480394FDF723
:103BC00061FA1B200090CDE901540D486946039429
:103BD000FDF758FA04206946CDE90004084802942C
:103BE000FDF750FA07B0BDE8F08F0000E04402583E
:103BF00000140258001C0258001802580000025815
:103C0000000C025870B5144807224FF48005114E7D
:103C100000212C01C0E9021201614FF0A043C0E96C
:103C20000514C0E9073141629A008162C162C0E9AE
:103C30000D21C163016441648164C1640165416512
:103C40008165C0E90065FEF76DFE002801D072B6FF
:103C5000FEE770BD003001403000002470B514480C
:103C600007224FF48005114E00212C01C0E90212F9
:103C700001614FF0A043C0E90514C0E9073141627A
:103C80009A008162C162C0E90D21C163016441648F
:103C90008164C164016541658165C0E90065FEF725
:103CA00041FE002801D072B6FEE770BD003800402A
:103CB000B800002470B5144807224FF48005114E57
:103CC00000212C01C0E9021201614FF0A043C0E9BC
:103CD0000514C0E9073141629A008162C162C0E9FE
:103CE0000D21C163016441648164C1640165416562
:103CF0008165C0E90065FEF715FE002801D072B6A7
:103D0000FEE770BD003C00404001002470B5134840
:103D100007244FF08042104E00211311C0E9021415
:103D200001611512C0E90513C0E9072141628162F2
:103D3000C162C0E90D21C163016441648164C16451
:103D4000016541658165C0E90065FEF7EBFD00286E
:103D500001D072B6FEE770BD00340140C8010024F6
:103D600070B5134807244FF08042104E0021131104
:103D7000C0E9021401611512C0E90513C0E9072169
:103D800041628162C162C0E90D21C1630164416485
:103D90008164C164016541658165C0E90065FEF724
:103DA000C1FD002801D072B6FEE770BD0050014091
:103DB000500200241748002110B5154C0C224FF476
:103DC000E1330460C0E90131C160C0E904128161DE
:103DD000C161016241628162FFF756FD08B172B6AE
:103DE000FEE70C480021FFF7A4FB08B172B6FEE71E
:103DF00008480021FFF777FB08B172B6FEE70548D7
:103E0000FFF74FFB002801D072B6FEE710BD00009F
:103E1000004C0040D8020024FEE7FEE77047000097
:103E200070B5B0B0BC216846FCF74FFB02210E4EC6
:103E30000096002020220192802314904025CE037A
:103E40001896CDE902310824089001221D92CDE98F
:103E50000650CDE904416846FDF762FC002801D018
:103E600072B6FEE730B070BD022000802DE9F04749
:103E7000454D044689464FF0000A2868C043800734
:103E80000AD0414E283E306820F080603060FDF757
:103E90001DFA0746B04608E00120BDE8F08700BFE4
:103EA000FDF714FAC01B022867D8D8F800000001FB
:103EB000F6D4206829684FF4FE0721F47C313E02D5
:103EC00041EA00302860207AA389B4F804C0400297
:103ED0002D4D2D495B1E227CACF1010C1035091DC6
:103EE000A0F5007080B2521ECCF3080C07EA034321
:103EF00040EA0C00184306EA026210432860086892
:103F0000626920F0C000104308600A68A06922F0CE
:103F1000200202430A60281D0A6822F010020A608B
:103F200002684FF6F873E4699A4342EAC4020260F9
:103F30000868B9F1000F40F010020A6011D008685B
:103F4000B9F1010F11D040F400100860D8F800005A
:103F5000444640F08060C8F80000FDF7B7F9054618
:103F60000DE0086840F40020EFE740F48010ECE733
:103F7000FDF7ACF9401B022801D903208DE720682A
:103F80000001F5D5504688E7284402582DE9F0474E
:103F9000454D044689464FF0000A2868C043800713
:103FA0000AD0414E283E306820F080503060FDF746
:103FB0008DF90746B04608E00120BDE8F08700BF54
:103FC000FDF784F9C01B022867D8D8F800008000EC
:103FD000F6D4208829684FF4FE0721F07C713E0258
:103FE00041EA00502860207AA389B4F804C0400256
:103FF0002D4D2D495B1E227CACF1010C1835091D9D
:10400000A0F5007080B2521ECCF3080C07EA0343FF
:1040100040EA0C00184306EA026210432860086870
:10402000626920F44060104308600A68A06922F4C5
:10403000007202430A60281D0A6822F480720A6036
:1040400002684FF6F873E4699A4342EAC4020260D8
:104050000868B9F1000F40F480720A6011D0086856
:10406000B9F1010F11D040F080700860D8F800005D
:10407000444640F08050C8F80000FDF727F9054697
:104080000DE0086840F48000EFE740F40000ECE742
:10409000FDF71CF9401B022801D903208DE7206899
:1040A0008000F5D5504688E72844025810B50268CC
:1040B00040F26F335169946944F0080494610268D6
:1040C000946944F0100494610268146824F00104B7
:1040D0001460026814699C4314610268936823F4B5
:1040E0004043936090F88120042A0CD08A060AD5B8
:1040F000D0F8842042F08002C0F8842002689369DE
:1041000043F02003936190F88120032A0CD04A06E3
:104110000AD5D0F8842042F00402C0F88420026856
:10412000936943F0400393618A050AD5D0F884204F
:1041300042F00102C0F884200268936943F40073DE
:104140009361C9050AD5D0F8841041F00801C0F880
:10415000841001688A6942F480728A610021A0F8A3
:104160006210A0F86A1010BD2DE9F041984616467D
:104170000D460746069C09E0FDF7A8F8A0EB0800ED
:10418000A04202D3601C01D00BE054B138684069F2
:1041900035EA000007D00020B042EDD00020BDE895
:1041A000F0810320FBE70120F6E77047FDF794B8A4
:1041B00030B59DB04C216846FCF787F9202113A843
:1041C000FCF783F90220FDF72BF91D490A681D4809
:1041D00022F001020A600968016821F4404141F4BB
:1041E000804101600168002401F440411B91016895
:1041F0008904FCD51448036802210122402523F0DC
:10420000030303600A94684609940091CDE90325ED
:10421000FEF700F908B172B6FEE73F20CDE91304BE
:104220001594012113A816941794189419941A94AC
:10423000FDF7E0FE002801D072B6FEE71DB030BDEC
:104240002C04005818480258284402582E48F0B54B
:104250002E4A016841F470010160106800F00F00FF
:10426000072804D2106820F00F00C01D10602849F4
:104270000020274C10340B68264D43F001030B60DF
:1042800020600B682B400B60136803F00F03072BB3
:1042900004D9136823F00F03DB1D13601C4C1E4A66
:1042A00018341E4B261D371D2060194C1C4D283418
:1042B0003060261D3860371D23603B1D35601C1D96
:1042C0003A60251D2E1D1860331D22602860326063
:1042D00018600A680E4B134C22F4802260330A6087
:1042E000186020686FF30F00B0F1005F03D20E4931
:1042F0000120C1F8080143F2D2000C49024B4A03E5
:10430000803B08601A60F0BD88ED00E0002000529C
:10431000004402587FEDF6EA800201010002020229
:104320000000FF010010005C0080005100400052BE
:1043300028B1012805D0022805D0032805D0E120A6
:104340007047D2207047B42070477820704728B15A
:10435000012805D0022805D0032805D0F120704798
:10436000F2207047F4207047F82070470148FFF7AB
:1043700009B90000D802002430B5416EB9B1016816
:104380000D4B03F108048A688968C2F34262490F41
:104390005D5C615C2D01B5FBF1F1A0F86A10995CE0
:1043A000A25C0901B1FBF2F1A0F8681030BD012157
:1043B000A0F86A10F8E700000652000890F82810EC
:1043C000C90706D00168C36A4A6822F400321A435A
:1043D0004A6090F82810890706D50168036B4A687F
:1043E00022F480321A434A6090F82810490706D513
:1043F0000168436B4A6822F480221A434A6090F8AD
:104400002810090706D50168836B4A6822F4004228
:104410001A434A6090F82810C90606D50168C36B94
:104420008A6822F480521A438A6090F8281089061C
:1044300006D50168036C8A6822F400521A438A6028
:1044400090F82810490611D50168436C4A6822F497
:1044500080121A434A60416CB1F5801F06D1016891
:10446000836C4A6822F4C0021A434A6090F828100C
:10447000090606D50168C26C486820F40020104384
:1044800048607047F8B500260446C0F88C60FCF719
:104490001DFF054620686FF07E470068000708D5BD
:1044A00000222B464FF400112046009700F04AFCF2
:1044B00060B92068006840070AD500222B464FF4F7
:1044C00080012046009700F03DFC08B10320F8BDB4
:1044D0002020C4F88400C4F88800E666002084F830
:1044E0008060F8BD10B5806B0021A0F85E10A0F8C8
:1044F0005610FFF746F810BD01680C4B0A6822F40D
:1045000090720A6001688A681A408A60C16E012947
:1045100004D101680A6822F010020A6000212022FA
:10452000C0F88820C166016770470000FEFFFFEFFA
:1045300070B50446D0F888002228B4F860102068CE
:1045400004D0816941F00801816170BD406AA26DAB
:1045500008401080A06D801CA065B4F85E00401E6D
:10456000A4F85E00B4F85E000028EED120680025B3
:104570002021026822F4907202602068826822F092
:1045800001028260C4F888102567E06E012804D01B
:104590002046FFF711FAE56670BD2068016821F03A
:1045A00010010160B4F85C102046FEF79AFFF2E7B4
:1045B0002DE9F04704460068C569D0F800A0D0F89E
:1045C0000880D4F88810B4F86060222905D0816989
:1045D00041F008018161BDE8F087B4F868704FF0E0
:1045E000000961E02068A16D406A30400880A06D3C
:1045F000801CA065B4F85E00401EA4F85E00206830
:10460000C569690730D0E9070AD05FEACA5107D502
:1046100001210162D4F88C0040F00100C4F88C0044
:10462000A8070BD55FEAC87008D02168022008628D
:10463000D4F88C0040F00400C4F88C0068070BD557
:104640005FEAC87008D0216804200862D4F88C00A2
:1046500040F00200C4F88C00D4F88C0020B1204651
:10466000FEF78FFFC4F88C90B4F85E00E0B92068C4
:1046700020231F4AD0F800C02CF4807CC0F800C072
:104680002068D0F808C00CEA020CC0F808C0C4F8D2
:104690008830C4F87090E06E01281DD02046FFF7E6
:1046A0008BF900BFC4F86C900FB1A8069AD4B4F887
:1046B0005E0000288FD0B4F8681081428BD9206842
:1046C000816821F0805181600A4820672068016874
:1046D00041F0200101607EE72068016821F01001AF
:1046E0000160B4F85C102046FEF7FBFEDAE700003C
:1046F000FEFFFFEF3145000870B50446D0F8880092
:104700002228B4F86010206804D0816941F00801C3
:10471000816170BD406AA26D08401070A06D401CA0
:10472000A065B4F85E00401EA4F85E00B4F85E0018
:104730000028EED1206800252021026822F4907222
:1047400002602068826822F001028260C4F888104A
:104750002567E06E012804D02046FFF72DF9E566B5
:1047600070BD2068016821F010010160B4F85C1090
:104770002046FEF7B6FEF2E72DE9F0470446006852
:10478000C569D0F800A0D0F80880D4F88810B4F833
:104790006060222905D0816941F008018161BDE88E
:1047A000F087B4F868704FF0000961E02068A16DEF
:1047B000406A30400870A06D401CA065B4F85E00EF
:1047C000401EA4F85E002068C569690730D0E9077B
:1047D0000AD05FEACA5107D501210162D4F88C00E2
:1047E00040F00100C4F88C00A8070BD55FEAC87040
:1047F00008D0216802200862D4F88C0040F0040040
:10480000C4F88C0068070BD55FEAC87008D021682F
:1048100004200862D4F88C0040F00200C4F88C0038
:10482000D4F88C0020B12046FEF7ABFEC4F88C9083
:10483000B4F85E00E0B9206820231F4AD0F800C019
:104840002CF4807CC0F800C02068D0F808C00CEAC6
:10485000020CC0F808C0C4F88830C4F87090E06E4C
:1048600001281DD02046FFF7A7F800BFC4F86C90C0
:104870000FB1A8069AD4B4F85E0000288FD0B4F81F
:10488000681081428BD92068816821F08051816055
:104890000A4820672068016841F0200101607EE736
:1048A0002068016821F010010160B4F85C10204616
:1048B000FEF717FEDAE70000FEFFFFEFF9460008FB
:1048C0002DE9F04304468068D84E87B0D84B216864
:1048D000D4E90427D4F81CC010430A68002547EA2D
:1048E0000C073843324002430A602068E26841689E
:1048F00021F44051114341602268A1699A4201D0DC
:10490000206A01439668DFF82CC3CB4FCB4806EAF8
:104910000C060E4396602168666ACA6A22F00F028E
:104920003243CA622268BA420ED1006800F03800F1
:10493000182873D047DCB8B3082879D010286FD175
:1049400078E028287ED17BE0BD498A4209D1006801
:1049500000F00700062875D2DFE800F0546A6C6E9C
:104960007072B8498A4209D1006800F00700062831
:1049700068D2DFE800F0475D5F616365B2498A4253
:1049800009D1006800F0070006285BD2DFE800F0DC
:104990003A5052545658AD498A420BD1006800F043
:1049A000070006284ED200E010E0DFE800F02B41BF
:1049B00043454749A6498A420AD1006800F03800B9
:1049C000182839D0B7DD2028BBD13CE001203AE0DF
:1049D000A0498A4209D1006800F00700062831D2B8
:1049E000DFE800F01026282A2C2E9B498A420BD1A2
:1049F000006800F00700062824D2DFE800F0031961
:104A00001B1D1F2100201EE09A421BD18B48001D58
:104A1000006800F00700062814D202E00CE007E06E
:104A200010E0DFE800F0030507090B0D02200AE0A3
:104A3000042008E0082006E0102004E0202002E026
:104A4000402000E080208549DFF814829A42854AA0
:104A50004FF400434FEA21174FF000064DD11028C4
:104A60001AD006DC022809D004280BD008287CD1F3
:104A70000DE020283DD0402877D13CE0FCF7FAFC3F
:104A8000014610E06846FCF707FD01990BE003A81A
:104A9000FCF7A4FD049906E01068800604D51068B0
:104AA000C0F3C100C140B9B3606A676838F810202C
:104AB00007EB4703B1FBF2F0834256D8B0EB073F58
:104AC00053D8002308461946FBF756FC02467808DF
:104AD000130E120243EA012110183A4671410023D5
:104AE000FBF74AFC604AA0F5407191423DD821682D
:104AF0004CE03946D8E71946D6E7D4F81CC04FF643
:104B0000EF799C4552D108281AD006DC60B1012803
:104B10000DD0042829D10EE039E0102815D0202826
:104B200040D040287CD13FE0FDF7B4FB01E0FDF729
:104B3000C3FB014610E06846FCF7AEFC01990BE0B0
:104B400003A8FCF74BFD049906E01068800604D525
:104B50001068C0F3C100C140C9B1636A606838F829
:104B60001330B1FBF3F1490000E059E001EB5001D3
:104B7000B1FBF0F080B2A0F11001494550D84FF6DA
:104B8000F0732168C0F3420218401043C86001204E
:104B9000A4F86A00A4F8680028462667666707B08C
:104BA000BDE8F0833946D8E71946D6E7082819D07A
:104BB00005DC58B101280CD0042831D10DE01028B3
:104BC00015D020282ED040282AD12DE0FDF762FBF9
:104BD00001E0FDF771FB014610E06846FCF75CFC64
:104BE00001990BE003A8FCF7F9FC049906E01068B2
:104BF000800605D51068C0F3C100C1400029C6D0A9
:104C0000636A606838F81330B1FBF3F101EB5001CF
:104C1000B1FBF0F080B2A0F1100149457FF667AF1B
:104C20000125B4E73946EBE71946E9E7F369FFCF19
:104C3000000C0058FFF4FF110010014054440258CA
:104C40000044004000480040004C0040005000403C
:104C50000014014000780040007C00400090D00328
:104C6000EE51000800440258FFFC0F0070B5846844
:104C7000002381654FF48056A0F85C20B442A0F870
:104C80005E204FF0FF01036704D10469DCB940F2F4
:104C9000FF1118E04FF07F059CB1B4F1805F15D093
:104CA000A0F860302221C0F88C30C0F8881001686C
:104CB0008C6844F001048C60416EB1F1005F0CD04F
:104CC00025E0046934B9A0F86010EBE7016909B187
:104CD0003F21F8E7A0F86050E4E7B0F8681091428F
:104CE00015D88168B14201D1016971B111490167DB
:104CF00080F8803001680A6842F480720A600068B7
:104D0000816841F0805181600FE00B49EFE78168D5
:104D1000B14201D1016951B10849016780F8803081
:104D20000068016841F490710160002070BD044981
:104D3000F3E7000079470008B1450008F94600088C
:104D4000314500082DE9F0479A4617460E460446BD
:104D5000089D4FF000094FF0200839E0681C37D05B
:104D6000FCF7B4FAA0EB0A00A84222D80DB32068E1
:104D7000016849072CD5C069C043000528D42368C1
:104D80004FF40061196221680B6823F4D0730B6043
:104D900021688B6823F001038B60C4F88480C4F819
:104DA0008880C4F88C8000BF032084F88090BDE820
:104DB000F08721680B6823F4D0730B6021688B683F
:104DC00023F001038B60C4F88480C4F88880EBE78B
:104DD0002068C06936EA000004D00020B842BDD087
:104DE0000020E4E70120F9E7FEE7090700284FEA81
:104DF000116104DB00F1E02080F80014704700F03E
:104E00000F0000F1E02080F8141D70472DED108B8D
:104E10008AB0FCF769FAFFF7CBF9FFF701F8FEF764
:104E20003FFEFEF747FFFEF7EDFEFEF7C3FFFEF77E
:104E300015FFFEF76BFFFEF793FF0122D248D10268
:104E4000FCF738FAD1A0D24D0024016801209FED73
:104E5000D10A089129462C7020226870AC7085ED2B
:104E6000010A85ED020A85ED030A85ED040A85ED48
:104E7000050A85ED060A287701F12000FBF7F3FA11
:104E8000C349642321222031A1F1B000FEF7A6FD21
:104E9000BF4921222031A1F1B000FEF767FD287F34
:104EA0001F28EDD1DFF8F0924FF40048012241466F
:104EB0004846FCF7FFF9DFF8E4B201220421584626
:104EC000FCF7F8F9B64F0023B6480122A24639464E
:104ED00000940194FBF770FCB34E08ABB3484FF459
:104EE00000723146FBF798FD012241464846FCF727
:104EF000E1F9012258460821FCF7DCF9A948002312
:104F000002223946883000940194FBF755FC0122B7
:104F100058464021FCF7CEF9012241464846FCF7AD
:104F2000C9F9002238461021FCF7C4F9A0484FF413
:104F300080539E493246CDE9010488310394A0F1A3
:104F40000108CDF80080A1F588700494FBF724FBDC
:104F5000984C9FED998B9FED9A9B9FED9BABB0EE8C
:104F600008BBB0EE04CB9FED9ADB9FED9BEB08F105
:104F7000030BA9468A4D01228A4805AB2946FBF757
:104F800005FD8848022207AB29468830FBF7FEFC66
:104F900098F80000E12803D198F80110F1297DD09C
:104FA000834A06A84FF480530290521CCDE9002B8F
:104FB0007E497D4A8831A1F58870FBF7E1FBBDF899
:104FC0001C009DF81E509DF81F709FED850A40BA89
:104FD000BDF818109DF81A2000049DF81B3040EA17
:104FE0000520BDF8145038439DF8166049BA9DF865
:104FF0001770A4EB903000EE900A090441EA0221F8
:10500000B8EE601B19436DBAA4EB913121EE081B79
:1050100000EE901A2A0442EA062038432122A4EB2B
:105020009030B7EEC11BB7EEC12AB8EE601B21EE7F
:10503000081B39EE422BB7EEC11BF7EEC20BB7EEE1
:10504000E02A00EE900AB8EE603B32EE4C2B22EEE6
:105050000D2BF7EEC20B23EE082BC0EE801AB7EE35
:10506000C10A39EE400BB7EEE14AB7EEC00B84EE51
:105070000E1BB7EEC00A80EE0A3BB7EEC20BF7EE8E
:10508000C1FBB7EEC00A39EE400B33EE4B2BB7EE47
:10509000C00BB7EEC2FB8DED020A00E019E03C49FF
:1050A0002031A1F1B000FEF761FC394920223848D7
:1050B0002031FBF7D8F9D8F80800454628B1012877
:1050C00010D0022814D0032818D089ED03FA4846DE
:1050D00019E006A9364ACDF800804FF48053CDE997
:1050E000012165E79FED2B0A484689ED040A0AE095
:1050F0009FED280A484689ED050A04E09FED250A40
:10510000484689ED060A0178FF2913D1C0ED01FA5E
:105110001F4920229DED020A01F1200089ED020ABB
:10512000FBF7A1F91A49642321222031A1F1B00033
:10513000FEF754FC686804281ED0FFF7F9F8A87041
:105140006868FFF704F9E8704FF48053CDE901BABD
:10515000174A1649521C00928831134AA1F58870EB
:10516000CDF80CA0CDF810A0FBF716FA6868401C2B
:105170006860A868401C02E05046C5F804A0A8601A
:105180000120FBF76DFFF5E6001402580301000053
:1051900068030024000000000000025800180258B4
:1051A000000C025830000024001C0258C8010024E2
:1051B00001000024FFFF0300FA7E6ABC7493183FCD
:1051C000FA7E6ABC749328407B14AE47E17A743F40
:1051D0006666666666662540B81E85EB51382440D3
:1051E00000007A444FF04070E1EE100A7047010071
:1051F00002000400060008000A000C001000200055
:1052000040008000000101010103070100000804C3
:105210000204080101010000000001020304010270
:105220000304060708090000485200080000002493
:1052300030000000D402000878520008300000243A
:10524000E0090000F0020008E1F1000001000000A8
:10525000000000000100000010000000000000003D
:105260000090D0030090D003D0D0D0D048080C10CC
:08527000140000000000000022
:040000050800029954
:00000001FF
